{
  "contractName": "BankUser",
  "abi": [
    {
      "constant": true,
      "inputs": [
        {
          "name": "",
          "type": "uint256"
        }
      ],
      "name": "BanksAddress",
      "outputs": [
        {
          "name": "",
          "type": "address"
        }
      ],
      "payable": false,
      "stateMutability": "view",
      "type": "function",
      "signature": "0x38c56499"
    },
    {
      "constant": true,
      "inputs": [],
      "name": "owner",
      "outputs": [
        {
          "name": "",
          "type": "address"
        }
      ],
      "payable": false,
      "stateMutability": "view",
      "type": "function",
      "signature": "0x8da5cb5b"
    },
    {
      "inputs": [],
      "payable": true,
      "stateMutability": "payable",
      "type": "constructor",
      "signature": "constructor"
    },
    {
      "anonymous": false,
      "inputs": [
        {
          "indexed": true,
          "name": "bankAddr",
          "type": "address"
        },
        {
          "indexed": false,
          "name": "uniqueCode",
          "type": "uint16"
        }
      ],
      "name": "newBankAdded",
      "type": "event",
      "signature": "0x8289fd356d90e73a62866ca2720028ba6e474824be10998cd576a1aec3d93fe7"
    },
    {
      "anonymous": false,
      "inputs": [
        {
          "indexed": true,
          "name": "accountAddress",
          "type": "address"
        },
        {
          "indexed": false,
          "name": "id",
          "type": "uint16"
        },
        {
          "indexed": false,
          "name": "bank_name",
          "type": "uint8"
        }
      ],
      "name": "newCustomerAdded",
      "type": "event",
      "signature": "0x2ddb17e156011b0e463634a19af634f36e0ef88a3ba7f8e21b9eed87186a5ad1"
    },
    {
      "anonymous": false,
      "inputs": [
        {
          "indexed": true,
          "name": "source",
          "type": "address"
        },
        {
          "indexed": true,
          "name": "destination",
          "type": "address"
        },
        {
          "indexed": false,
          "name": "amount",
          "type": "uint256"
        }
      ],
      "name": "Transfer",
      "type": "event",
      "signature": "0xddf252ad1be2c89b69c2b068fc378daa952ba7f163c4a11628f55a4df523b3ef"
    },
    {
      "anonymous": false,
      "inputs": [
        {
          "indexed": true,
          "name": "account",
          "type": "address"
        },
        {
          "indexed": false,
          "name": "amount",
          "type": "uint256"
        }
      ],
      "name": "MoneyAdded",
      "type": "event",
      "signature": "0xf0401208c2e8a4275ea966d53c2b051e41e1bb413fe9014254cefd19bf2d32d8"
    },
    {
      "anonymous": false,
      "inputs": [
        {
          "indexed": true,
          "name": "account",
          "type": "address"
        },
        {
          "indexed": false,
          "name": "oldStatus",
          "type": "bool"
        },
        {
          "indexed": false,
          "name": "newStatus",
          "type": "bool"
        }
      ],
      "name": "CustomerStatusChanged",
      "type": "event",
      "signature": "0x9a601295cc11b31ba3cc700f628d4dcaa078a6d638b86ba2c701b6e4dee05e94"
    },
    {
      "anonymous": false,
      "inputs": [
        {
          "indexed": true,
          "name": "account",
          "type": "address"
        },
        {
          "indexed": false,
          "name": "oldStatus",
          "type": "bool"
        },
        {
          "indexed": false,
          "name": "newStatus",
          "type": "bool"
        }
      ],
      "name": "BankStatusChanged",
      "type": "event",
      "signature": "0x533ae61274d5d6c3a4d72ba42356e44f8900ea5e22ab3079606b6bffb493cc95"
    },
    {
      "constant": false,
      "inputs": [
        {
          "name": "_address",
          "type": "address"
        },
        {
          "name": "bankName",
          "type": "string"
        },
        {
          "name": "uniqueCode",
          "type": "uint16"
        }
      ],
      "name": "addBank",
      "outputs": [
        {
          "name": "",
          "type": "bool"
        }
      ],
      "payable": false,
      "stateMutability": "nonpayable",
      "type": "function",
      "signature": "0x73b49f72"
    },
    {
      "constant": false,
      "inputs": [
        {
          "name": "_address",
          "type": "address"
        },
        {
          "name": "name",
          "type": "string"
        },
        {
          "name": "_bankAddr",
          "type": "address"
        }
      ],
      "name": "addCustomer",
      "outputs": [
        {
          "name": "",
          "type": "bool"
        }
      ],
      "payable": false,
      "stateMutability": "nonpayable",
      "type": "function",
      "signature": "0x4f492166"
    },
    {
      "constant": false,
      "inputs": [
        {
          "name": "accountAddress",
          "type": "address"
        }
      ],
      "name": "addMoney",
      "outputs": [
        {
          "name": "",
          "type": "bool"
        }
      ],
      "payable": true,
      "stateMutability": "payable",
      "type": "function",
      "signature": "0x60b5e654"
    },
    {
      "constant": true,
      "inputs": [
        {
          "name": "user",
          "type": "address"
        }
      ],
      "name": "getBalance",
      "outputs": [
        {
          "name": "",
          "type": "uint256"
        }
      ],
      "payable": false,
      "stateMutability": "view",
      "type": "function",
      "signature": "0xf8b2cb4f"
    },
    {
      "constant": false,
      "inputs": [
        {
          "name": "source",
          "type": "address"
        },
        {
          "name": "destination",
          "type": "address"
        },
        {
          "name": "amount",
          "type": "uint256"
        }
      ],
      "name": "transferTo",
      "outputs": [
        {
          "name": "remainingBal",
          "type": "uint256"
        }
      ],
      "payable": true,
      "stateMutability": "payable",
      "type": "function",
      "signature": "0xa5f2a152"
    },
    {
      "constant": true,
      "inputs": [],
      "name": "getBanks",
      "outputs": [
        {
          "name": "",
          "type": "address[]"
        }
      ],
      "payable": false,
      "stateMutability": "view",
      "type": "function",
      "signature": "0x43347e0e"
    },
    {
      "constant": true,
      "inputs": [
        {
          "name": "_address",
          "type": "address"
        }
      ],
      "name": "getBank",
      "outputs": [
        {
          "name": "",
          "type": "uint256"
        },
        {
          "name": "",
          "type": "string"
        },
        {
          "name": "",
          "type": "uint16"
        },
        {
          "name": "",
          "type": "bool"
        }
      ],
      "payable": false,
      "stateMutability": "view",
      "type": "function",
      "signature": "0x83e0c31d"
    },
    {
      "constant": true,
      "inputs": [
        {
          "name": "_address",
          "type": "address"
        }
      ],
      "name": "getCustomer",
      "outputs": [
        {
          "name": "",
          "type": "uint256"
        },
        {
          "name": "",
          "type": "string"
        },
        {
          "name": "",
          "type": "string"
        },
        {
          "name": "",
          "type": "bool"
        },
        {
          "name": "",
          "type": "uint256"
        }
      ],
      "payable": false,
      "stateMutability": "view",
      "type": "function",
      "signature": "0xcb949e51"
    },
    {
      "constant": true,
      "inputs": [
        {
          "name": "A",
          "type": "address"
        }
      ],
      "name": "isExistingCustomer",
      "outputs": [
        {
          "name": "",
          "type": "bool"
        }
      ],
      "payable": false,
      "stateMutability": "view",
      "type": "function",
      "signature": "0x96eef7d8"
    },
    {
      "constant": true,
      "inputs": [
        {
          "name": "A",
          "type": "address"
        }
      ],
      "name": "isExistingBank",
      "outputs": [
        {
          "name": "",
          "type": "bool"
        }
      ],
      "payable": false,
      "stateMutability": "view",
      "type": "function",
      "signature": "0xdea76d56"
    },
    {
      "constant": false,
      "inputs": [
        {
          "name": "A",
          "type": "address"
        },
        {
          "name": "status",
          "type": "bool"
        }
      ],
      "name": "changeCustomerStatus",
      "outputs": [
        {
          "name": "newStatus",
          "type": "bool"
        }
      ],
      "payable": false,
      "stateMutability": "nonpayable",
      "type": "function",
      "signature": "0x6ce1f9e6"
    },
    {
      "constant": false,
      "inputs": [
        {
          "name": "A",
          "type": "address"
        },
        {
          "name": "status",
          "type": "bool"
        }
      ],
      "name": "changeBankStatus",
      "outputs": [
        {
          "name": "newStatus",
          "type": "bool"
        }
      ],
      "payable": false,
      "stateMutability": "nonpayable",
      "type": "function",
      "signature": "0x410eb24b"
    }
  ],
  "bytecode": "0x60806040526703782dace9d90000600155670de0b6b3a76400003414610070576040517f08c379a00000000000000000000000000000000000000000000000000000000081526004018080602001828103825260278152602001806123456027913960400191505060405180910390fd5b336000806101000a81548173ffffffffffffffffffffffffffffffffffffffff021916908373ffffffffffffffffffffffffffffffffffffffff160217905550612286806100bf6000396000f3fe6080604052600436106100fa576000357c01000000000000000000000000000000000000000000000000000000009004806383e0c31d1161009c578063a5f2a15211610076578063a5f2a15214610705578063cb949e5114610787578063dea76d56146108d6578063f8b2cb4f1461093f576100fa565b806383e0c31d1461055a5780638da5cb5b1461064557806396eef7d81461069c576100fa565b80634f492166116100d85780634f4921661461025b57806360b5e6541461037b5780636ce1f9e6146103d757806373b49f721461044c576100fa565b806338c56499146100ff578063410eb24b1461017a57806343347e0e146101ef575b600080fd5b34801561010b57600080fd5b506101386004803603602081101561012257600080fd5b81019080803590602001909291905050506109a4565b604051808273ffffffffffffffffffffffffffffffffffffffff1673ffffffffffffffffffffffffffffffffffffffff16815260200191505060405180910390f35b34801561018657600080fd5b506101d56004803603604081101561019d57600080fd5b81019080803573ffffffffffffffffffffffffffffffffffffffff1690602001909291908035151590602001909291905050506109e0565b604051808215151515815260200191505060405180910390f35b3480156101fb57600080fd5b50610204610b27565b6040518080602001828103825283818151815260200191508051906020019060200280838360005b8381101561024757808201518184015260208101905061022c565b505050509050019250505060405180910390f35b34801561026757600080fd5b506103616004803603606081101561027e57600080fd5b81019080803573ffffffffffffffffffffffffffffffffffffffff169060200190929190803590602001906401000000008111156102bb57600080fd5b8201836020820111156102cd57600080fd5b803590602001918460018302840111640100000000831117156102ef57600080fd5b91908080601f016020809104026020016040519081016040528093929190818152602001838380828437600081840152601f19601f820116905080830192505050505050509192919290803573ffffffffffffffffffffffffffffffffffffffff169060200190929190505050610bb5565b604051808215151515815260200191505060405180910390f35b6103bd6004803603602081101561039157600080fd5b81019080803573ffffffffffffffffffffffffffffffffffffffff169060200190929190505050611081565b604051808215151515815260200191505060405180910390f35b3480156103e357600080fd5b50610432600480360360408110156103fa57600080fd5b81019080803573ffffffffffffffffffffffffffffffffffffffff1690602001909291908035151590602001909291905050506112b6565b604051808215151515815260200191505060405180910390f35b34801561045857600080fd5b506105406004803603606081101561046f57600080fd5b81019080803573ffffffffffffffffffffffffffffffffffffffff169060200190929190803590602001906401000000008111156104ac57600080fd5b8201836020820111156104be57600080fd5b803590602001918460018302840111640100000000831117156104e057600080fd5b91908080601f016020809104026020016040519081016040528093929190818152602001838380828437600081840152601f19601f820116905080830192505050505050509192919290803561ffff1690602001909291905050506113fd565b604051808215151515815260200191505060405180910390f35b34801561056657600080fd5b506105a96004803603602081101561057d57600080fd5b81019080803573ffffffffffffffffffffffffffffffffffffffff1690602001909291905050506117f7565b60405180858152602001806020018461ffff1661ffff16815260200183151515158152602001828103825285818151815260200191508051906020019080838360005b838110156106075780820151818401526020810190506105ec565b50505050905090810190601f1680156106345780820380516001836020036101000a031916815260200191505b509550505050505060405180910390f35b34801561065157600080fd5b5061065a6119e2565b604051808273ffffffffffffffffffffffffffffffffffffffff1673ffffffffffffffffffffffffffffffffffffffff16815260200191505060405180910390f35b3480156106a857600080fd5b506106eb600480360360208110156106bf57600080fd5b81019080803573ffffffffffffffffffffffffffffffffffffffff169060200190929190505050611a07565b604051808215151515815260200191505060405180910390f35b6107716004803603606081101561071b57600080fd5b81019080803573ffffffffffffffffffffffffffffffffffffffff169060200190929190803573ffffffffffffffffffffffffffffffffffffffff16906020019092919080359060200190929190505050611a71565b6040518082815260200191505060405180910390f35b34801561079357600080fd5b506107d6600480360360208110156107aa57600080fd5b81019080803573ffffffffffffffffffffffffffffffffffffffff169060200190929190505050611d8f565b60405180868152602001806020018060200185151515158152602001848152602001838103835287818151815260200191508051906020019080838360005b83811015610830578082015181840152602081019050610815565b50505050905090810190601f16801561085d5780820380516001836020036101000a031916815260200191505b50838103825286818151815260200191508051906020019080838360005b8381101561089657808201518184015260208101905061087b565b50505050905090810190601f1680156108c35780820380516001836020036101000a031916815260200191505b5097505050505050505060405180910390f35b3480156108e257600080fd5b50610925600480360360208110156108f957600080fd5b81019080803573ffffffffffffffffffffffffffffffffffffffff169060200190929190505050611fe6565b604051808215151515815260200191505060405180910390f35b34801561094b57600080fd5b5061098e6004803603602081101561096257600080fd5b81019080803573ffffffffffffffffffffffffffffffffffffffff169060200190929190505050612050565b6040518082815260200191505060405180910390f35b600481815481106109b157fe5b906000526020600020016000915054906101000a900473ffffffffffffffffffffffffffffffffffffffff1681565b60008060009054906101000a900473ffffffffffffffffffffffffffffffffffffffff1673ffffffffffffffffffffffffffffffffffffffff163373ffffffffffffffffffffffffffffffffffffffff1614610a3b57600080fd5b600073ffffffffffffffffffffffffffffffffffffffff168373ffffffffffffffffffffffffffffffffffffffff161415610a7557600080fd5b81600260008573ffffffffffffffffffffffffffffffffffffffff1673ffffffffffffffffffffffffffffffffffffffff16815260200190815260200160002060020160006101000a81548160ff021916908315150217905550600260008473ffffffffffffffffffffffffffffffffffffffff1673ffffffffffffffffffffffffffffffffffffffff16815260200190815260200160002060020160009054906101000a900460ff16905092915050565b60606004805480602002602001604051908101604052809291908181526020018280548015610bab57602002820191906000526020600020905b8160009054906101000a900473ffffffffffffffffffffffffffffffffffffffff1673ffffffffffffffffffffffffffffffffffffffff1681526020019060010190808311610b61575b5050505050905090565b6000836000809054906101000a900473ffffffffffffffffffffffffffffffffffffffff1673ffffffffffffffffffffffffffffffffffffffff168173ffffffffffffffffffffffffffffffffffffffff1614158015610c4157503073ffffffffffffffffffffffffffffffffffffffff168173ffffffffffffffffffffffffffffffffffffffff1614155b610c4a57600080fd5b84600260008273ffffffffffffffffffffffffffffffffffffffff1673ffffffffffffffffffffffffffffffffffffffff16815260200190815260200160002060020160009054906101000a900460ff1615610ca557600080fd5b600360008773ffffffffffffffffffffffffffffffffffffffff1673ffffffffffffffffffffffffffffffffffffffff16815260200190815260200160002060030160009054906101000a900460ff1615610cff57600080fd5b6001600360008873ffffffffffffffffffffffffffffffffffffffff1673ffffffffffffffffffffffffffffffffffffffff16815260200190815260200160002060000160008282829054906101000a900461ffff160192506101000a81548161ffff021916908361ffff16021790555084600360008873ffffffffffffffffffffffffffffffffffffffff1673ffffffffffffffffffffffffffffffffffffffff1681526020019081526020016000206001019080519060200190610dc692919061212e565b50600260008573ffffffffffffffffffffffffffffffffffffffff1673ffffffffffffffffffffffffffffffffffffffff168152602001908152602001600020600360008873ffffffffffffffffffffffffffffffffffffffff1673ffffffffffffffffffffffffffffffffffffffff1681526020019081526020016000206002016000600360008a73ffffffffffffffffffffffffffffffffffffffff1673ffffffffffffffffffffffffffffffffffffffff16815260200190815260200160002060000160009054906101000a900461ffff1661ffff1661ffff1681526020019081526020016000206000820160009054906101000a900460ff168160000160006101000a81548160ff021916908360ff16021790555060018201816001019080546001816001161561010002031660029004610f069291906121ae565b506002820160009054906101000a900460ff168160020160006101000a81548160ff0219169083151502179055506002820160019054906101000a900461ffff168160020160016101000a81548161ffff021916908361ffff1602179055509050506000600360008873ffffffffffffffffffffffffffffffffffffffff1673ffffffffffffffffffffffffffffffffffffffff168152602001908152602001600020600401819055506001600360008873ffffffffffffffffffffffffffffffffffffffff1673ffffffffffffffffffffffffffffffffffffffff16815260200190815260200160002060030160006101000a81548160ff021916908315150217905550600160058790806001815401808255809150509060018203906000526020600020016000909192909190916101000a81548173ffffffffffffffffffffffffffffffffffffffff021916908373ffffffffffffffffffffffffffffffffffffffff16021790555050506001925050509392505050565b60008073ffffffffffffffffffffffffffffffffffffffff168273ffffffffffffffffffffffffffffffffffffffff161415611125576040517f08c379a00000000000000000000000000000000000000000000000000000000081526004018080602001828103825260158152602001807f616464726573732063616e6e6f7420626520307830000000000000000000000081525060200191505060405180910390fd5b6000341161119b576040517f08c379a000000000000000000000000000000000000000000000000000000000815260040180806020018281038252601c8152602001807f56616c7565206d7573742062652067726561746572207468616e20300000000081525060200191505060405180910390fd5b600360008373ffffffffffffffffffffffffffffffffffffffff1673ffffffffffffffffffffffffffffffffffffffff16815260200190815260200160002060030160009054906101000a900460ff1661125d576040517f08c379a00000000000000000000000000000000000000000000000000000000081526004018080602001828103825260168152602001807f437573746f6d6572206973206e6f74206163746976650000000000000000000081525060200191505060405180910390fd5b34600360008473ffffffffffffffffffffffffffffffffffffffff1673ffffffffffffffffffffffffffffffffffffffff1681526020019081526020016000206004016000828254019250508190555060019050919050565b60008060009054906101000a900473ffffffffffffffffffffffffffffffffffffffff1673ffffffffffffffffffffffffffffffffffffffff163373ffffffffffffffffffffffffffffffffffffffff161461131157600080fd5b600073ffffffffffffffffffffffffffffffffffffffff168373ffffffffffffffffffffffffffffffffffffffff16141561134b57600080fd5b81600360008573ffffffffffffffffffffffffffffffffffffffff1673ffffffffffffffffffffffffffffffffffffffff16815260200190815260200160002060030160006101000a81548160ff021916908315150217905550600360008473ffffffffffffffffffffffffffffffffffffffff1673ffffffffffffffffffffffffffffffffffffffff16815260200190815260200160002060030160009054906101000a900460ff16905092915050565b6000836000809054906101000a900473ffffffffffffffffffffffffffffffffffffffff1673ffffffffffffffffffffffffffffffffffffffff168173ffffffffffffffffffffffffffffffffffffffff161415801561148957503073ffffffffffffffffffffffffffffffffffffffff168173ffffffffffffffffffffffffffffffffffffffff1614155b61149257600080fd5b84600360008273ffffffffffffffffffffffffffffffffffffffff1673ffffffffffffffffffffffffffffffffffffffff16815260200190815260200160002060030160009054906101000a900460ff16156114ed57600080fd5b6000809054906101000a900473ffffffffffffffffffffffffffffffffffffffff1673ffffffffffffffffffffffffffffffffffffffff163373ffffffffffffffffffffffffffffffffffffffff161461154657600080fd5b600260008773ffffffffffffffffffffffffffffffffffffffff1673ffffffffffffffffffffffffffffffffffffffff16815260200190815260200160002060020160009054906101000a900460ff161580156115fb57508361ffff16600260008873ffffffffffffffffffffffffffffffffffffffff1673ffffffffffffffffffffffffffffffffffffffff16815260200190815260200160002060020160019054906101000a900461ffff1661ffff1614155b61160457600080fd5b6001600260008873ffffffffffffffffffffffffffffffffffffffff1673ffffffffffffffffffffffffffffffffffffffff16815260200190815260200160002060000160008282829054906101000a900460ff160192506101000a81548160ff021916908360ff16021790555084600260008873ffffffffffffffffffffffffffffffffffffffff1673ffffffffffffffffffffffffffffffffffffffff16815260200190815260200160002060010190805190602001906116c892919061212e565b5083600260008873ffffffffffffffffffffffffffffffffffffffff1673ffffffffffffffffffffffffffffffffffffffff16815260200190815260200160002060020160016101000a81548161ffff021916908361ffff1602179055506001600260008873ffffffffffffffffffffffffffffffffffffffff1673ffffffffffffffffffffffffffffffffffffffff16815260200190815260200160002060020160006101000a81548160ff021916908315150217905550600160048790806001815401808255809150509060018203906000526020600020016000909192909190916101000a81548173ffffffffffffffffffffffffffffffffffffffff021916908373ffffffffffffffffffffffffffffffffffffffff16021790555050506001925050509392505050565b60006060600080600260008673ffffffffffffffffffffffffffffffffffffffff1673ffffffffffffffffffffffffffffffffffffffff16815260200190815260200160002060000160009054906101000a900460ff16600260008773ffffffffffffffffffffffffffffffffffffffff1673ffffffffffffffffffffffffffffffffffffffff168152602001908152602001600020600101600260008873ffffffffffffffffffffffffffffffffffffffff1673ffffffffffffffffffffffffffffffffffffffff16815260200190815260200160002060020160019054906101000a900461ffff16600260008973ffffffffffffffffffffffffffffffffffffffff1673ffffffffffffffffffffffffffffffffffffffff16815260200190815260200160002060020160009054906101000a900460ff168360ff169350828054600181600116156101000203166002900480601f0160208091040260200160405190810160405280929190818152602001828054600181600116156101000203166002900480156119cc5780601f106119a1576101008083540402835291602001916119cc565b820191906000526020600020905b8154815290600101906020018083116119af57829003601f168201915b5050505050925093509350935093509193509193565b6000809054906101000a900473ffffffffffffffffffffffffffffffffffffffff1681565b6000600360008373ffffffffffffffffffffffffffffffffffffffff1673ffffffffffffffffffffffffffffffffffffffff16815260200190815260200160002060030160009054906101000a900460ff1615611a675760019050611a6c565b600090505b919050565b6000838073ffffffffffffffffffffffffffffffffffffffff163373ffffffffffffffffffffffffffffffffffffffff1614611aac57600080fd5b600360008273ffffffffffffffffffffffffffffffffffffffff1673ffffffffffffffffffffffffffffffffffffffff16815260200190815260200160002060030160009054906101000a900460ff16611b0557600080fd5b600073ffffffffffffffffffffffffffffffffffffffff168573ffffffffffffffffffffffffffffffffffffffff1614158015611b6f5750600073ffffffffffffffffffffffffffffffffffffffff168473ffffffffffffffffffffffffffffffffffffffff1614155b611be1576040517f08c379a00000000000000000000000000000000000000000000000000000000081526004018080602001828103825260158152602001807f616464726573732063616e6e6f7420626520307830000000000000000000000081525060200191505060405180910390fd5b6001548311158015611bf257503483145b611bfb57600080fd5b600360008573ffffffffffffffffffffffffffffffffffffffff1673ffffffffffffffffffffffffffffffffffffffff16815260200190815260200160002060030160009054906101000a900460ff168015611c99575082600360008773ffffffffffffffffffffffffffffffffffffffff1673ffffffffffffffffffffffffffffffffffffffff1681526020019081526020016000206004015410155b611ca257600080fd5b82600360008773ffffffffffffffffffffffffffffffffffffffff1673ffffffffffffffffffffffffffffffffffffffff1681526020019081526020016000206004016000828254039250508190555082600360008673ffffffffffffffffffffffffffffffffffffffff1673ffffffffffffffffffffffffffffffffffffffff16815260200190815260200160002060040160008282540192505081905550600360008673ffffffffffffffffffffffffffffffffffffffff1673ffffffffffffffffffffffffffffffffffffffff168152602001908152602001600020600401549150509392505050565b60006060806000806000809054906101000a900473ffffffffffffffffffffffffffffffffffffffff1673ffffffffffffffffffffffffffffffffffffffff163373ffffffffffffffffffffffffffffffffffffffff1614611df057600080fd5b6000600360008873ffffffffffffffffffffffffffffffffffffffff1673ffffffffffffffffffffffffffffffffffffffff16815260200190815260200160002090508060000160009054906101000a900461ffff16816001018260020160008460000160009054906101000a900461ffff1661ffff1661ffff1681526020019081526020016000206001018360030160009054906101000a900460ff1684600401548461ffff169450838054600181600116156101000203166002900480601f016020809104026020016040519081016040528092919081815260200182805460018160011615610100020316600290048015611f2f5780601f10611f0457610100808354040283529160200191611f2f565b820191906000526020600020905b815481529060010190602001808311611f1257829003601f168201915b50505050509350828054600181600116156101000203166002900480601f016020809104026020016040519081016040528092919081815260200182805460018160011615610100020316600290048015611fcb5780601f10611fa057610100808354040283529160200191611fcb565b820191906000526020600020905b815481529060010190602001808311611fae57829003601f168201915b50505050509250955095509550955095505091939590929450565b6000600260008373ffffffffffffffffffffffffffffffffffffffff1673ffffffffffffffffffffffffffffffffffffffff16815260200190815260200160002060020160009054906101000a900460ff1615612046576001905061204b565b600090505b919050565b60008073ffffffffffffffffffffffffffffffffffffffff168273ffffffffffffffffffffffffffffffffffffffff16141561208b57600080fd5b600360008373ffffffffffffffffffffffffffffffffffffffff1673ffffffffffffffffffffffffffffffffffffffff16815260200190815260200160002060030160009054906101000a900460ff166120e457600080fd5b600360008373ffffffffffffffffffffffffffffffffffffffff1673ffffffffffffffffffffffffffffffffffffffff168152602001908152602001600020600401549050919050565b828054600181600116156101000203166002900490600052602060002090601f016020900481019282601f1061216f57805160ff191683800117855561219d565b8280016001018555821561219d579182015b8281111561219c578251825591602001919060010190612181565b5b5090506121aa9190612235565b5090565b828054600181600116156101000203166002900490600052602060002090601f016020900481019282601f106121e75780548555612224565b8280016001018555821561222457600052602060002091601f016020900482015b82811115612223578254825591600101919060010190612208565b5b5090506122319190612235565b5090565b61225791905b8082111561225357600081600090555060010161223b565b5090565b9056fea165627a7a723058201fa97864811e7578ae3da9ebc20ac6c8dac00c858b292c9be563e904f4e32a9d002942616e6b204163636f756e742042616c616e636520696e697469616c2069732035204574686572",
  "source": "/**\nTO DO in below smart contract:\n-- Asking user Bank details while transferring and depositing\n-- Maintaining One to one mapping between customer and bank\n-- Add multiple banks to a single customer\n-- Balance deduction from BANK Accounts \n-- Pending approvals behavior\n-- EVENT Emitting, however the structure is ready\n-- Customer specific changes\n-- UI to actually demonstrate this smart contract beautifully\n\n */\n\npragma solidity ^0.5.2;\nimport '/home/mannutech/Development/client/node_modules/openzeppelin-solidity/contracts/math/SafeMath.sol';\ncontract BankUser {\n    using SafeMath for uint;\n    using SafeMath for uint8;\n    using SafeMath for uint16;\n    address payable public owner;\n    uint max_withdrawal_allowed = 0.25 ether;\n\n\n    struct Bank{\n        uint8 id;\n        string name;\n        bool isActive;\n        // uint balance; NOT TAKING THIS INTO ACCOUNT currently to avoid complexities\n        uint16 uniqueCode;\n    }\n\n    struct Customer{\n        uint16 id;\n        string name;\n        mapping (uint16 => Bank) bank;  \n        bool isActive;\n        uint balance;\n\n    }\n    mapping (address => Bank) private Banks;\n    mapping (address => Customer) private Customers;\n    address[] public BanksAddress;\n    address[] private CustomerAddress;\n\n // Log the event about a deposit being made by an address and its amount\n    event newBankAdded(address indexed bankAddr, uint16 uniqueCode);\n    event newCustomerAdded(address indexed accountAddress, uint16 id, uint8 bank_name);\n    event Transfer(address indexed source, address indexed destination, uint amount);\n    event MoneyAdded(address indexed account, uint amount);\n    event CustomerStatusChanged(address indexed account, bool oldStatus, bool newStatus);\n    event BankStatusChanged(address indexed account,bool oldStatus, bool newStatus);\n\n\n    constructor() public payable {\n        require(msg.value == 1 ether, \"Bank Account Balance initial is 5 Ether\");\n        /* Set the owner to the creator of this contract */\n        owner = msg.sender;\n    }\n    modifier onlyOwner(){\n        require(msg.sender == owner);\n        _;\n    }\n    modifier onlyBank(){\n        // require(Banks[msg.sender].isActive); COMMENTING TO EASE OUT TESTING\n        _;\n    } \n    modifier customerAuth(address source){\n        require(msg.sender == source);\n        require(Customers[source].isActive);\n        _;\n    }  \n\n    modifier notOwner(address A){\n        require((A != address(owner)) && (A != address(this)));\n        _;\n    }\n    modifier notExistingBank(address A){\n        require(!Banks[A].isActive);\n        _;\n    }\n    modifier notExistingCustomer(address A){\n        require(!Customers[A].isActive);\n        _;\n    }\n//@purpose: Adding a new bank\nfunction addBank(address _address, string memory bankName, uint16 uniqueCode) public notOwner(_address)  notExistingCustomer(_address) onlyOwner() returns (bool) {\n        require(!Banks[_address].isActive && Banks[_address].uniqueCode != uniqueCode);\n        Banks[_address].id += 1;\n        Banks[_address].name = bankName;\n        Banks[_address].uniqueCode = uniqueCode;\n        Banks[_address].isActive = true;\n\n        BanksAddress.push(_address) -1;\n        return true;\n    }\n\n// @purpose: Adding a  new customer with requisite details\nfunction addCustomer(address _address, string memory name, address _bankAddr) public notOwner(_address) notExistingBank(_address) returns (bool) {\n        require(!Customers[_address].isActive);\n        // Customer storage cust = Customers[_address];\n        Customers[_address].id += 1;\n        Customers[_address].name = name;\n        Customers[_address].bank[Customers[_address].id] = Banks[_bankAddr];\n        Customers[_address].balance = 0;\n        Customers[_address].isActive = true;\n        CustomerAddress.push(_address) -1;\n        return true;\n    }  \n\n// @purpose: Add money to account from bank\nfunction addMoney(address accountAddress) public payable /* customerAuth(accountAddress) */ returns (bool) {\n        require(accountAddress != address(0), 'address cannot be 0x0');\n        require((msg.value > 0), 'Value must be greater than 0');\n        require(Customers[accountAddress].isActive, 'Customer is not active');\n        Customers[accountAddress].balance += msg.value;\n        // owner.transfer(msg.value);\n        return true;\n    }\n\n//@purpose: getting balance of a customer\nfunction getBalance(address user) view public returns (uint) {\n        require(user != address(0));\n        require(Customers[user].isActive);\n        return Customers[user].balance;\n    }\n\n\n//@purpose: Transfer request from user\nfunction transferTo(address source,address destination, uint amount) public payable customerAuth(source) returns (uint remainingBal) {\n        // Check enough balance available, otherwise just return balance\n        require(source != address(0) && destination != address(0), 'address cannot be 0x0');\n        require(amount <= max_withdrawal_allowed && amount == msg.value);\n        require(Customers[destination].isActive && Customers[source].balance >= amount);\n        Customers[source].balance -= amount;\n        Customers[destination].balance += amount;\n        // owner.transfer(msg.value);\n        return Customers[source].balance;\n    }\n\n//@purpose: getting list of banks addresses     \nfunction getBanks() view public returns(address[] memory) {\n        return BanksAddress;\n    }\n\n//@purpose: getting details about a bank at a address\nfunction getBank(address _address) view public returns (uint, string memory, uint16, bool) {\n        return (Banks[_address].id, Banks[_address].name, Banks[_address].uniqueCode,Banks[_address].isActive);\n    }\n\n//@purpose: getting a customer details only callble by bank\nfunction getCustomer(address _address) view public onlyBank() onlyOwner() returns (uint, string memory, string memory, bool, uint) {\n        Customer storage c = Customers[_address];\n        return (c.id, c.name, c.bank[c.id].name,c.isActive, c.balance);\n    }\n\n//@purpose: Check for an existing customer\nfunction isExistingCustomer(address A) view public returns (bool) {\n        if(Customers[A].isActive) {\n            return true;\n            }\n        else{\n            return false;\n            }\n    }\n\n//@purpose: Check for an existing bank\nfunction isExistingBank(address A) view public returns (bool) {\n        if(Banks[A].isActive) {\n            return true;\n            }\n        else{\n            return false;\n            }\n    }\n\n//@purpose: Check for contract balance\nfunction contractBalance() view internal returns (uint) {\n        return address(this).balance;\n    }\n/**\n    Currently only contract owner can change status for a customer and bank\n */\nfunction changeCustomerStatus(address A, bool status) onlyOwner() public returns (bool newStatus) {\n        require(A != address(0));\n        Customers[A].isActive = status;\n        return Customers[A].isActive;\n    }\n\nfunction changeBankStatus(address A, bool status) onlyOwner() public returns (bool newStatus) {\n        require(A != address(0));\n        Banks[A].isActive = status;\n        return Banks[A].isActive;\n    }\n}",
  "sourcePath": "/home/mannutech/Development/client/src/solidity/contracts/BankUser.sol",
  "compiler": {
    "name": "solc",
    "version": "0.5.7+commit.6da8b019.Emscripten.clang"
  },
  "schemaVersion": "3.0.2",
  "updatedAt": "2019-03-29T21:36:25.779Z",
  "devdoc": {
    "methods": {}
  },
  "userdoc": {
    "methods": {
      "changeCustomerStatus(address,bool)": {
        "notice": "Currently only contract owner can change status for a customer and bank"
      }
    }
  }
}